{
  "contractName": "TimERC1155",
  "abi": [
    {
      "inputs": [],
      "stateMutability": "nonpayable",
      "type": "constructor"
    },
    {
      "anonymous": false,
      "inputs": [
        {
          "indexed": true,
          "internalType": "address",
          "name": "account",
          "type": "address"
        },
        {
          "indexed": true,
          "internalType": "address",
          "name": "operator",
          "type": "address"
        },
        {
          "indexed": false,
          "internalType": "bool",
          "name": "approved",
          "type": "bool"
        }
      ],
      "name": "ApprovalForAll",
      "type": "event"
    },
    {
      "anonymous": false,
      "inputs": [
        {
          "indexed": true,
          "internalType": "address",
          "name": "operator",
          "type": "address"
        },
        {
          "indexed": true,
          "internalType": "address",
          "name": "from",
          "type": "address"
        },
        {
          "indexed": true,
          "internalType": "address",
          "name": "to",
          "type": "address"
        },
        {
          "indexed": false,
          "internalType": "uint256[]",
          "name": "ids",
          "type": "uint256[]"
        },
        {
          "indexed": false,
          "internalType": "uint256[]",
          "name": "values",
          "type": "uint256[]"
        }
      ],
      "name": "TransferBatch",
      "type": "event"
    },
    {
      "anonymous": false,
      "inputs": [
        {
          "indexed": true,
          "internalType": "address",
          "name": "operator",
          "type": "address"
        },
        {
          "indexed": true,
          "internalType": "address",
          "name": "from",
          "type": "address"
        },
        {
          "indexed": true,
          "internalType": "address",
          "name": "to",
          "type": "address"
        },
        {
          "indexed": false,
          "internalType": "uint256",
          "name": "id",
          "type": "uint256"
        },
        {
          "indexed": false,
          "internalType": "uint256",
          "name": "value",
          "type": "uint256"
        }
      ],
      "name": "TransferSingle",
      "type": "event"
    },
    {
      "anonymous": false,
      "inputs": [
        {
          "indexed": false,
          "internalType": "string",
          "name": "value",
          "type": "string"
        },
        {
          "indexed": true,
          "internalType": "uint256",
          "name": "id",
          "type": "uint256"
        }
      ],
      "name": "URI",
      "type": "event"
    },
    {
      "inputs": [
        {
          "internalType": "address",
          "name": "account",
          "type": "address"
        },
        {
          "internalType": "uint256",
          "name": "id",
          "type": "uint256"
        }
      ],
      "name": "balanceOf",
      "outputs": [
        {
          "internalType": "uint256",
          "name": "",
          "type": "uint256"
        }
      ],
      "stateMutability": "view",
      "type": "function",
      "constant": true
    },
    {
      "inputs": [
        {
          "internalType": "address[]",
          "name": "accounts",
          "type": "address[]"
        },
        {
          "internalType": "uint256[]",
          "name": "ids",
          "type": "uint256[]"
        }
      ],
      "name": "balanceOfBatch",
      "outputs": [
        {
          "internalType": "uint256[]",
          "name": "",
          "type": "uint256[]"
        }
      ],
      "stateMutability": "view",
      "type": "function",
      "constant": true
    },
    {
      "inputs": [
        {
          "internalType": "address",
          "name": "account",
          "type": "address"
        },
        {
          "internalType": "address",
          "name": "operator",
          "type": "address"
        }
      ],
      "name": "isApprovedForAll",
      "outputs": [
        {
          "internalType": "bool",
          "name": "",
          "type": "bool"
        }
      ],
      "stateMutability": "view",
      "type": "function",
      "constant": true
    },
    {
      "inputs": [
        {
          "internalType": "address",
          "name": "from",
          "type": "address"
        },
        {
          "internalType": "address",
          "name": "to",
          "type": "address"
        },
        {
          "internalType": "uint256[]",
          "name": "ids",
          "type": "uint256[]"
        },
        {
          "internalType": "uint256[]",
          "name": "amounts",
          "type": "uint256[]"
        },
        {
          "internalType": "bytes",
          "name": "data",
          "type": "bytes"
        }
      ],
      "name": "safeBatchTransferFrom",
      "outputs": [],
      "stateMutability": "nonpayable",
      "type": "function"
    },
    {
      "inputs": [
        {
          "internalType": "address",
          "name": "from",
          "type": "address"
        },
        {
          "internalType": "address",
          "name": "to",
          "type": "address"
        },
        {
          "internalType": "uint256",
          "name": "id",
          "type": "uint256"
        },
        {
          "internalType": "uint256",
          "name": "amount",
          "type": "uint256"
        },
        {
          "internalType": "bytes",
          "name": "data",
          "type": "bytes"
        }
      ],
      "name": "safeTransferFrom",
      "outputs": [],
      "stateMutability": "nonpayable",
      "type": "function"
    },
    {
      "inputs": [
        {
          "internalType": "address",
          "name": "operator",
          "type": "address"
        },
        {
          "internalType": "bool",
          "name": "approved",
          "type": "bool"
        }
      ],
      "name": "setApprovalForAll",
      "outputs": [],
      "stateMutability": "nonpayable",
      "type": "function"
    },
    {
      "inputs": [
        {
          "internalType": "bytes4",
          "name": "interfaceId",
          "type": "bytes4"
        }
      ],
      "name": "supportsInterface",
      "outputs": [
        {
          "internalType": "bool",
          "name": "",
          "type": "bool"
        }
      ],
      "stateMutability": "view",
      "type": "function",
      "constant": true
    },
    {
      "inputs": [
        {
          "internalType": "uint256",
          "name": "",
          "type": "uint256"
        }
      ],
      "name": "uri",
      "outputs": [
        {
          "internalType": "string",
          "name": "",
          "type": "string"
        }
      ],
      "stateMutability": "view",
      "type": "function",
      "constant": true
    },
    {
      "inputs": [
        {
          "internalType": "address",
          "name": "account",
          "type": "address"
        },
        {
          "internalType": "uint256",
          "name": "id",
          "type": "uint256"
        },
        {
          "internalType": "uint256",
          "name": "amount",
          "type": "uint256"
        },
        {
          "internalType": "bytes",
          "name": "data",
          "type": "bytes"
        }
      ],
      "name": "mint",
      "outputs": [],
      "stateMutability": "nonpayable",
      "type": "function"
    },
    {
      "inputs": [
        {
          "internalType": "address",
          "name": "to",
          "type": "address"
        },
        {
          "internalType": "uint256[]",
          "name": "ids",
          "type": "uint256[]"
        },
        {
          "internalType": "uint256[]",
          "name": "amounts",
          "type": "uint256[]"
        },
        {
          "internalType": "bytes",
          "name": "data",
          "type": "bytes"
        }
      ],
      "name": "mintBatch",
      "outputs": [],
      "stateMutability": "nonpayable",
      "type": "function"
    }
  ],
  "bytecode": "0x6080604052604051806102800160405280600060ff168152602001600160ff168152602001600260ff168152602001600360ff168152602001600460ff168152602001600560ff168152602001600660ff168152602001600760ff168152602001600860ff168152602001600960ff168152602001600a60ff168152602001600b60ff168152602001600c60ff168152602001600d60ff168152602001600e60ff168152602001600f60ff168152602001601060ff168152602001601160ff168152602001601260ff168152602001601360ff168152506003906014620000e892919062000223565b50604051806102800160405280600160ff168152602001600160ff168152602001600160ff168152602001600160ff168152602001600160ff168152602001600160ff168152602001600160ff168152602001600160ff168152602001600160ff168152602001600160ff168152602001600160ff168152602001600160ff168152602001600160ff168152602001600160ff168152602001600160ff168152602001600160ff168152602001600160ff168152602001600160ff168152602001600160ff168152602001600160ff168152506004906014620001cd92919062000223565b50348015620001db57600080fd5b506040518060800160405280605581526020016200311f6055913962000207816200020e60201b60201c565b50620005fa565b80600290816200021f919062000513565b5050565b82805482825590600052602060002090810192821562000267579160200282015b8281111562000266578251829060ff1690559160200191906001019062000244565b5b5090506200027691906200027a565b5090565b5b80821115620002955760008160009055506001016200027b565b5090565b600081519050919050565b7f4e487b7100000000000000000000000000000000000000000000000000000000600052604160045260246000fd5b7f4e487b7100000000000000000000000000000000000000000000000000000000600052602260045260246000fd5b600060028204905060018216806200031b57607f821691505b602082108103620003315762000330620002d3565b5b50919050565b60008190508160005260206000209050919050565b60006020601f8301049050919050565b600082821b905092915050565b6000600883026200039b7fffffffffffffffffffffffffffffffffffffffffffffffffffffffffffffffff826200035c565b620003a786836200035c565b95508019841693508086168417925050509392505050565b6000819050919050565b6000819050919050565b6000620003f4620003ee620003e884620003bf565b620003c9565b620003bf565b9050919050565b6000819050919050565b6200041083620003d3565b620004286200041f82620003fb565b84845462000369565b825550505050565b600090565b6200043f62000430565b6200044c81848462000405565b505050565b5b8181101562000474576200046860008262000435565b60018101905062000452565b5050565b601f821115620004c3576200048d8162000337565b62000498846200034c565b81016020851015620004a8578190505b620004c0620004b7856200034c565b83018262000451565b50505b505050565b600082821c905092915050565b6000620004e860001984600802620004c8565b1980831691505092915050565b6000620005038383620004d5565b9150826002028217905092915050565b6200051e8262000299565b67ffffffffffffffff8111156200053a5762000539620002a4565b5b62000546825462000302565b6200055382828562000478565b600060209050601f8311600181146200058b576000841562000576578287015190505b620005828582620004f5565b865550620005f2565b601f1984166200059b8662000337565b60005b82811015620005c5578489015182556001820191506020850194506020810190506200059e565b86831015620005e55784890151620005e1601f891682620004d5565b8355505b6001600288020188555050505b505050505050565b612b15806200060a6000396000f3fe608060405234801561001057600080fd5b506004361061009d5760003560e01c80634e1273f4116100665780634e1273f41461016a578063731133e91461019a578063a22cb465146101b6578063e985e9c5146101d2578063f242432a146102025761009d565b8062fdd58e146100a257806301ffc9a7146100d25780630e89341c146101025780631f7fdffa146101325780632eb2c2d61461014e575b600080fd5b6100bc60048036038101906100b791906117fe565b61021e565b6040516100c9919061184d565b60405180910390f35b6100ec60048036038101906100e791906118c0565b6102e6565b6040516100f99190611908565b60405180910390f35b61011c60048036038101906101179190611923565b6103c8565b60405161012991906119e0565b60405180910390f35b61014c60048036038101906101479190611bff565b61045c565b005b61016860048036038101906101639190611cba565b61046e565b005b610184600480360381019061017f9190611e4c565b61050f565b6040516101919190611f82565b60405180910390f35b6101b460048036038101906101af9190611fa4565b610628565b005b6101d060048036038101906101cb9190612053565b61063a565b005b6101ec60048036038101906101e79190612093565b610650565b6040516101f99190611908565b60405180910390f35b61021c600480360381019061021791906120d3565b6106e4565b005b60008073ffffffffffffffffffffffffffffffffffffffff168373ffffffffffffffffffffffffffffffffffffffff160361028e576040517f08c379a0000000000000000000000000000000000000000000000000000000008152600401610285906121dc565b60405180910390fd5b60008083815260200190815260200160002060008473ffffffffffffffffffffffffffffffffffffffff1673ffffffffffffffffffffffffffffffffffffffff16815260200190815260200160002054905092915050565b60007fd9b67a26000000000000000000000000000000000000000000000000000000007bffffffffffffffffffffffffffffffffffffffffffffffffffffffff1916827bffffffffffffffffffffffffffffffffffffffffffffffffffffffff191614806103b157507f0e89341c000000000000000000000000000000000000000000000000000000007bffffffffffffffffffffffffffffffffffffffffffffffffffffffff1916827bffffffffffffffffffffffffffffffffffffffffffffffffffffffff1916145b806103c157506103c082610785565b5b9050919050565b6060600280546103d79061222b565b80601f01602080910402602001604051908101604052809291908181526020018280546104039061222b565b80156104505780601f1061042557610100808354040283529160200191610450565b820191906000526020600020905b81548152906001019060200180831161043357829003601f168201915b50505050509050919050565b610468848484846107ef565b50505050565b610476610a1b565b73ffffffffffffffffffffffffffffffffffffffff168573ffffffffffffffffffffffffffffffffffffffff1614806104bc57506104bb856104b6610a1b565b610650565b5b6104fb576040517f08c379a00000000000000000000000000000000000000000000000000000000081526004016104f2906122ce565b60405180910390fd5b6105088585858585610a23565b5050505050565b60608151835114610555576040517f08c379a000000000000000000000000000000000000000000000000000000000815260040161054c90612360565b60405180910390fd5b6000835167ffffffffffffffff81111561057257610571611a07565b5b6040519080825280602002602001820160405280156105a05781602001602082028036833780820191505090505b50905060005b845181101561061d576105ed8582815181106105c5576105c4612380565b5b60200260200101518583815181106105e0576105df612380565b5b602002602001015161021e565b828281518110610600576105ff612380565b5b60200260200101818152505080610616906123de565b90506105a6565b508091505092915050565b61063484848484610d44565b50505050565b61064c610645610a1b565b8383610ef4565b5050565b6000600160008473ffffffffffffffffffffffffffffffffffffffff1673ffffffffffffffffffffffffffffffffffffffff16815260200190815260200160002060008373ffffffffffffffffffffffffffffffffffffffff1673ffffffffffffffffffffffffffffffffffffffff16815260200190815260200160002060009054906101000a900460ff16905092915050565b6106ec610a1b565b73ffffffffffffffffffffffffffffffffffffffff168573ffffffffffffffffffffffffffffffffffffffff16148061073257506107318561072c610a1b565b610650565b5b610771576040517f08c379a0000000000000000000000000000000000000000000000000000000008152600401610768906122ce565b60405180910390fd5b61077e8585858585611060565b5050505050565b60007f01ffc9a7000000000000000000000000000000000000000000000000000000007bffffffffffffffffffffffffffffffffffffffffffffffffffffffff1916827bffffffffffffffffffffffffffffffffffffffffffffffffffffffff1916149050919050565b600073ffffffffffffffffffffffffffffffffffffffff168473ffffffffffffffffffffffffffffffffffffffff160361085e576040517f08c379a000000000000000000000000000000000000000000000000000000000815260040161085590612498565b60405180910390fd5b81518351146108a2576040517f08c379a00000000000000000000000000000000000000000000000000000000081526004016108999061252a565b60405180910390fd5b60006108ac610a1b565b90506108bd816000878787876112fb565b60005b8451811015610976578381815181106108dc576108db612380565b5b60200260200101516000808784815181106108fa576108f9612380565b5b6020026020010151815260200190815260200160002060008873ffffffffffffffffffffffffffffffffffffffff1673ffffffffffffffffffffffffffffffffffffffff168152602001908152602001600020600082825461095c919061254a565b92505081905550808061096e906123de565b9150506108c0565b508473ffffffffffffffffffffffffffffffffffffffff16600073ffffffffffffffffffffffffffffffffffffffff168273ffffffffffffffffffffffffffffffffffffffff167f4a39dc06d4c0dbc64b70af90fd698a233a518aa5d07e595d983b8c0526c8f7fb87876040516109ee92919061257e565b60405180910390a4610a0581600087878787611303565b610a148160008787878761130b565b5050505050565b600033905090565b8151835114610a67576040517f08c379a0000000000000000000000000000000000000000000000000000000008152600401610a5e9061252a565b60405180910390fd5b600073ffffffffffffffffffffffffffffffffffffffff168473ffffffffffffffffffffffffffffffffffffffff1603610ad6576040517f08c379a0000000000000000000000000000000000000000000000000000000008152600401610acd90612627565b60405180910390fd5b6000610ae0610a1b565b9050610af08187878787876112fb565b60005b8451811015610ca1576000858281518110610b1157610b10612380565b5b602002602001015190506000858381518110610b3057610b2f612380565b5b60200260200101519050600080600084815260200190815260200160002060008b73ffffffffffffffffffffffffffffffffffffffff1673ffffffffffffffffffffffffffffffffffffffff16815260200190815260200160002054905081811015610bd1576040517f08c379a0000000000000000000000000000000000000000000000000000000008152600401610bc8906126b9565b60405180910390fd5b81810360008085815260200190815260200160002060008c73ffffffffffffffffffffffffffffffffffffffff1673ffffffffffffffffffffffffffffffffffffffff168152602001908152602001600020819055508160008085815260200190815260200160002060008b73ffffffffffffffffffffffffffffffffffffffff1673ffffffffffffffffffffffffffffffffffffffff1681526020019081526020016000206000828254610c86919061254a565b9250508190555050505080610c9a906123de565b9050610af3565b508473ffffffffffffffffffffffffffffffffffffffff168673ffffffffffffffffffffffffffffffffffffffff168273ffffffffffffffffffffffffffffffffffffffff167f4a39dc06d4c0dbc64b70af90fd698a233a518aa5d07e595d983b8c0526c8f7fb8787604051610d1892919061257e565b60405180910390a4610d2e818787878787611303565b610d3c81878787878761130b565b505050505050565b600073ffffffffffffffffffffffffffffffffffffffff168473ffffffffffffffffffffffffffffffffffffffff1603610db3576040517f08c379a0000000000000000000000000000000000000000000000000000000008152600401610daa90612498565b60405180910390fd5b6000610dbd610a1b565b90506000610dca856114e2565b90506000610dd7856114e2565b9050610de8836000898585896112fb565b8460008088815260200190815260200160002060008973ffffffffffffffffffffffffffffffffffffffff1673ffffffffffffffffffffffffffffffffffffffff1681526020019081526020016000206000828254610e47919061254a565b925050819055508673ffffffffffffffffffffffffffffffffffffffff16600073ffffffffffffffffffffffffffffffffffffffff168473ffffffffffffffffffffffffffffffffffffffff167fc3d58168c5ae7397731d063d5bbf3d657854427343f4c083240f7aacaa2d0f628989604051610ec59291906126d9565b60405180910390a4610edc83600089858589611303565b610eeb8360008989898961155c565b50505050505050565b8173ffffffffffffffffffffffffffffffffffffffff168373ffffffffffffffffffffffffffffffffffffffff1603610f62576040517f08c379a0000000000000000000000000000000000000000000000000000000008152600401610f5990612774565b60405180910390fd5b80600160008573ffffffffffffffffffffffffffffffffffffffff1673ffffffffffffffffffffffffffffffffffffffff16815260200190815260200160002060008473ffffffffffffffffffffffffffffffffffffffff1673ffffffffffffffffffffffffffffffffffffffff16815260200190815260200160002060006101000a81548160ff0219169083151502179055508173ffffffffffffffffffffffffffffffffffffffff168373ffffffffffffffffffffffffffffffffffffffff167f17307eab39ab6107e8899845ad3d59bd9653f200f220920489ca2b5937696c31836040516110539190611908565b60405180910390a3505050565b600073ffffffffffffffffffffffffffffffffffffffff168473ffffffffffffffffffffffffffffffffffffffff16036110cf576040517f08c379a00000000000000000000000000000000000000000000000000000000081526004016110c690612627565b60405180910390fd5b60006110d9610a1b565b905060006110e6856114e2565b905060006110f3856114e2565b90506111038389898585896112fb565b600080600088815260200190815260200160002060008a73ffffffffffffffffffffffffffffffffffffffff1673ffffffffffffffffffffffffffffffffffffffff1681526020019081526020016000205490508581101561119a576040517f08c379a0000000000000000000000000000000000000000000000000000000008152600401611191906126b9565b60405180910390fd5b85810360008089815260200190815260200160002060008b73ffffffffffffffffffffffffffffffffffffffff1673ffffffffffffffffffffffffffffffffffffffff168152602001908152602001600020819055508560008089815260200190815260200160002060008a73ffffffffffffffffffffffffffffffffffffffff1673ffffffffffffffffffffffffffffffffffffffff168152602001908152602001600020600082825461124f919061254a565b925050819055508773ffffffffffffffffffffffffffffffffffffffff168973ffffffffffffffffffffffffffffffffffffffff168573ffffffffffffffffffffffffffffffffffffffff167fc3d58168c5ae7397731d063d5bbf3d657854427343f4c083240f7aacaa2d0f628a8a6040516112cc9291906126d9565b60405180910390a46112e2848a8a86868a611303565b6112f0848a8a8a8a8a61155c565b505050505050505050565b505050505050565b505050505050565b61132a8473ffffffffffffffffffffffffffffffffffffffff16611733565b156114da578373ffffffffffffffffffffffffffffffffffffffff1663bc197c8187878686866040518663ffffffff1660e01b81526004016113709594939291906127f8565b6020604051808303816000875af19250505080156113ac57506040513d601f19601f820116820180604052508101906113a99190612875565b60015b611451576113b86128af565b806308c379a00361141457506113cc6128d1565b806113d75750611416565b806040517f08c379a000000000000000000000000000000000000000000000000000000000815260040161140b91906119e0565b60405180910390fd5b505b6040517f08c379a0000000000000000000000000000000000000000000000000000000008152600401611448906129d3565b60405180910390fd5b63bc197c8160e01b7bffffffffffffffffffffffffffffffffffffffffffffffffffffffff1916817bffffffffffffffffffffffffffffffffffffffffffffffffffffffff1916146114d8576040517f08c379a00000000000000000000000000000000000000000000000000000000081526004016114cf90612a65565b60405180910390fd5b505b505050505050565b60606000600167ffffffffffffffff81111561150157611500611a07565b5b60405190808252806020026020018201604052801561152f5781602001602082028036833780820191505090505b509050828160008151811061154757611546612380565b5b60200260200101818152505080915050919050565b61157b8473ffffffffffffffffffffffffffffffffffffffff16611733565b1561172b578373ffffffffffffffffffffffffffffffffffffffff1663f23a6e6187878686866040518663ffffffff1660e01b81526004016115c1959493929190612a85565b6020604051808303816000875af19250505080156115fd57506040513d601f19601f820116820180604052508101906115fa9190612875565b60015b6116a2576116096128af565b806308c379a003611665575061161d6128d1565b806116285750611667565b806040517f08c379a000000000000000000000000000000000000000000000000000000000815260040161165c91906119e0565b60405180910390fd5b505b6040517f08c379a0000000000000000000000000000000000000000000000000000000008152600401611699906129d3565b60405180910390fd5b63f23a6e6160e01b7bffffffffffffffffffffffffffffffffffffffffffffffffffffffff1916817bffffffffffffffffffffffffffffffffffffffffffffffffffffffff191614611729576040517f08c379a000000000000000000000000000000000000000000000000000000000815260040161172090612a65565b60405180910390fd5b505b505050505050565b6000808273ffffffffffffffffffffffffffffffffffffffff163b119050919050565b6000604051905090565b600080fd5b600080fd5b600073ffffffffffffffffffffffffffffffffffffffff82169050919050565b60006117958261176a565b9050919050565b6117a58161178a565b81146117b057600080fd5b50565b6000813590506117c28161179c565b92915050565b6000819050919050565b6117db816117c8565b81146117e657600080fd5b50565b6000813590506117f8816117d2565b92915050565b6000806040838503121561181557611814611760565b5b6000611823858286016117b3565b9250506020611834858286016117e9565b9150509250929050565b611847816117c8565b82525050565b6000602082019050611862600083018461183e565b92915050565b60007fffffffff0000000000000000000000000000000000000000000000000000000082169050919050565b61189d81611868565b81146118a857600080fd5b50565b6000813590506118ba81611894565b92915050565b6000602082840312156118d6576118d5611760565b5b60006118e4848285016118ab565b91505092915050565b60008115159050919050565b611902816118ed565b82525050565b600060208201905061191d60008301846118f9565b92915050565b60006020828403121561193957611938611760565b5b6000611947848285016117e9565b91505092915050565b600081519050919050565b600082825260208201905092915050565b60005b8381101561198a57808201518184015260208101905061196f565b60008484015250505050565b6000601f19601f8301169050919050565b60006119b282611950565b6119bc818561195b565b93506119cc81856020860161196c565b6119d581611996565b840191505092915050565b600060208201905081810360008301526119fa81846119a7565b905092915050565b600080fd5b7f4e487b7100000000000000000000000000000000000000000000000000000000600052604160045260246000fd5b611a3f82611996565b810181811067ffffffffffffffff82111715611a5e57611a5d611a07565b5b80604052505050565b6000611a71611756565b9050611a7d8282611a36565b919050565b600067ffffffffffffffff821115611a9d57611a9c611a07565b5b602082029050602081019050919050565b600080fd5b6000611ac6611ac184611a82565b611a67565b90508083825260208201905060208402830185811115611ae957611ae8611aae565b5b835b81811015611b125780611afe88826117e9565b845260208401935050602081019050611aeb565b5050509392505050565b600082601f830112611b3157611b30611a02565b5b8135611b41848260208601611ab3565b91505092915050565b600080fd5b600067ffffffffffffffff821115611b6a57611b69611a07565b5b611b7382611996565b9050602081019050919050565b82818337600083830152505050565b6000611ba2611b9d84611b4f565b611a67565b905082815260208101848484011115611bbe57611bbd611b4a565b5b611bc9848285611b80565b509392505050565b600082601f830112611be657611be5611a02565b5b8135611bf6848260208601611b8f565b91505092915050565b60008060008060808587031215611c1957611c18611760565b5b6000611c27878288016117b3565b945050602085013567ffffffffffffffff811115611c4857611c47611765565b5b611c5487828801611b1c565b935050604085013567ffffffffffffffff811115611c7557611c74611765565b5b611c8187828801611b1c565b925050606085013567ffffffffffffffff811115611ca257611ca1611765565b5b611cae87828801611bd1565b91505092959194509250565b600080600080600060a08688031215611cd657611cd5611760565b5b6000611ce4888289016117b3565b9550506020611cf5888289016117b3565b945050604086013567ffffffffffffffff811115611d1657611d15611765565b5b611d2288828901611b1c565b935050606086013567ffffffffffffffff811115611d4357611d42611765565b5b611d4f88828901611b1c565b925050608086013567ffffffffffffffff811115611d7057611d6f611765565b5b611d7c88828901611bd1565b9150509295509295909350565b600067ffffffffffffffff821115611da457611da3611a07565b5b602082029050602081019050919050565b6000611dc8611dc384611d89565b611a67565b90508083825260208201905060208402830185811115611deb57611dea611aae565b5b835b81811015611e145780611e0088826117b3565b845260208401935050602081019050611ded565b5050509392505050565b600082601f830112611e3357611e32611a02565b5b8135611e43848260208601611db5565b91505092915050565b60008060408385031215611e6357611e62611760565b5b600083013567ffffffffffffffff811115611e8157611e80611765565b5b611e8d85828601611e1e565b925050602083013567ffffffffffffffff811115611eae57611ead611765565b5b611eba85828601611b1c565b9150509250929050565b600081519050919050565b600082825260208201905092915050565b6000819050602082019050919050565b611ef9816117c8565b82525050565b6000611f0b8383611ef0565b60208301905092915050565b6000602082019050919050565b6000611f2f82611ec4565b611f398185611ecf565b9350611f4483611ee0565b8060005b83811015611f75578151611f5c8882611eff565b9750611f6783611f17565b925050600181019050611f48565b5085935050505092915050565b60006020820190508181036000830152611f9c8184611f24565b905092915050565b60008060008060808587031215611fbe57611fbd611760565b5b6000611fcc878288016117b3565b9450506020611fdd878288016117e9565b9350506040611fee878288016117e9565b925050606085013567ffffffffffffffff81111561200f5761200e611765565b5b61201b87828801611bd1565b91505092959194509250565b612030816118ed565b811461203b57600080fd5b50565b60008135905061204d81612027565b92915050565b6000806040838503121561206a57612069611760565b5b6000612078858286016117b3565b92505060206120898582860161203e565b9150509250929050565b600080604083850312156120aa576120a9611760565b5b60006120b8858286016117b3565b92505060206120c9858286016117b3565b9150509250929050565b600080600080600060a086880312156120ef576120ee611760565b5b60006120fd888289016117b3565b955050602061210e888289016117b3565b945050604061211f888289016117e9565b9350506060612130888289016117e9565b925050608086013567ffffffffffffffff81111561215157612150611765565b5b61215d88828901611bd1565b9150509295509295909350565b7f455243313135353a2061646472657373207a65726f206973206e6f742061207660008201527f616c6964206f776e657200000000000000000000000000000000000000000000602082015250565b60006121c6602a8361195b565b91506121d18261216a565b604082019050919050565b600060208201905081810360008301526121f5816121b9565b9050919050565b7f4e487b7100000000000000000000000000000000000000000000000000000000600052602260045260246000fd5b6000600282049050600182168061224357607f821691505b602082108103612256576122556121fc565b5b50919050565b7f455243313135353a2063616c6c6572206973206e6f7420746f6b656e206f776e60008201527f6572206f7220617070726f766564000000000000000000000000000000000000602082015250565b60006122b8602e8361195b565b91506122c38261225c565b604082019050919050565b600060208201905081810360008301526122e7816122ab565b9050919050565b7f455243313135353a206163636f756e747320616e6420696473206c656e67746860008201527f206d69736d617463680000000000000000000000000000000000000000000000602082015250565b600061234a60298361195b565b9150612355826122ee565b604082019050919050565b600060208201905081810360008301526123798161233d565b9050919050565b7f4e487b7100000000000000000000000000000000000000000000000000000000600052603260045260246000fd5b7f4e487b7100000000000000000000000000000000000000000000000000000000600052601160045260246000fd5b60006123e9826117c8565b91507fffffffffffffffffffffffffffffffffffffffffffffffffffffffffffffffff820361241b5761241a6123af565b5b600182019050919050565b7f455243313135353a206d696e7420746f20746865207a65726f2061646472657360008201527f7300000000000000000000000000000000000000000000000000000000000000602082015250565b600061248260218361195b565b915061248d82612426565b604082019050919050565b600060208201905081810360008301526124b181612475565b9050919050565b7f455243313135353a2069647320616e6420616d6f756e7473206c656e6774682060008201527f6d69736d61746368000000000000000000000000000000000000000000000000602082015250565b600061251460288361195b565b915061251f826124b8565b604082019050919050565b6000602082019050818103600083015261254381612507565b9050919050565b6000612555826117c8565b9150612560836117c8565b9250828201905080821115612578576125776123af565b5b92915050565b600060408201905081810360008301526125988185611f24565b905081810360208301526125ac8184611f24565b90509392505050565b7f455243313135353a207472616e7366657220746f20746865207a65726f20616460008201527f6472657373000000000000000000000000000000000000000000000000000000602082015250565b600061261160258361195b565b915061261c826125b5565b604082019050919050565b6000602082019050818103600083015261264081612604565b9050919050565b7f455243313135353a20696e73756666696369656e742062616c616e636520666f60008201527f72207472616e7366657200000000000000000000000000000000000000000000602082015250565b60006126a3602a8361195b565b91506126ae82612647565b604082019050919050565b600060208201905081810360008301526126d281612696565b9050919050565b60006040820190506126ee600083018561183e565b6126fb602083018461183e565b9392505050565b7f455243313135353a2073657474696e6720617070726f76616c2073746174757360008201527f20666f722073656c660000000000000000000000000000000000000000000000602082015250565b600061275e60298361195b565b915061276982612702565b604082019050919050565b6000602082019050818103600083015261278d81612751565b9050919050565b61279d8161178a565b82525050565b600081519050919050565b600082825260208201905092915050565b60006127ca826127a3565b6127d481856127ae565b93506127e481856020860161196c565b6127ed81611996565b840191505092915050565b600060a08201905061280d6000830188612794565b61281a6020830187612794565b818103604083015261282c8186611f24565b905081810360608301526128408185611f24565b9050818103608083015261285481846127bf565b90509695505050505050565b60008151905061286f81611894565b92915050565b60006020828403121561288b5761288a611760565b5b600061289984828501612860565b91505092915050565b60008160e01c9050919050565b600060033d11156128ce5760046000803e6128cb6000516128a2565b90505b90565b600060443d1061295e576128e3611756565b60043d036004823e80513d602482011167ffffffffffffffff8211171561290b57505061295e565b808201805167ffffffffffffffff811115612929575050505061295e565b80602083010160043d03850181111561294657505050505061295e565b61295582602001850186611a36565b82955050505050505b90565b7f455243313135353a207472616e7366657220746f206e6f6e2d4552433131353560008201527f526563656976657220696d706c656d656e746572000000000000000000000000602082015250565b60006129bd60348361195b565b91506129c882612961565b604082019050919050565b600060208201905081810360008301526129ec816129b0565b9050919050565b7f455243313135353a204552433131353552656365697665722072656a6563746560008201527f6420746f6b656e73000000000000000000000000000000000000000000000000602082015250565b6000612a4f60288361195b565b9150612a5a826129f3565b604082019050919050565b60006020820190508181036000830152612a7e81612a42565b9050919050565b600060a082019050612a9a6000830188612794565b612aa76020830187612794565b612ab4604083018661183e565b612ac1606083018561183e565b8181036080830152612ad381846127bf565b9050969550505050505056fea2646970667358221220736534c0b99cb3b711ecfe80dde0a23369da21c6a2359c1ae839b223ffc5cceb64736f6c6343000813003368747470733a2f2f676174657761792e70696e6174612e636c6f75642f697066732f516d5a4854336776647a4b523163333566386848563651707a617533426f534c42645a315859596f58396a4d78482f7b69647d",
  "immutableReferences": {},
  "source": "// SPDX-License-Identifier: MIT\r\npragma solidity ^0.8.18;\r\n\r\n\r\nimport \"@openzeppelin/contracts/token/ERC1155/ERC1155.sol\";\r\n\r\ncontract TimERC1155 is ERC1155 {\r\n    // uint256 public constant Red = 1;\r\n    // uint256 public constant Green = 2;\r\n    // uint256 public constant Blue = 3;\r\n    \r\n    uint256[] ids = [0,1,2,3,4,5,6,7,8,9,10,11,12,13,14,15,16,17,18,19];\r\n    uint256[] amounts = [1,1,1,1,1,1,1,1,1,1,1,1,1,1,1,1,1,1,1,1];\r\n    constructor() ERC1155(\"https://gateway.pinata.cloud/ipfs/QmZHT3gvdzKR1c35f8hHV6Qpzau3BoSLBdZ1XYYoX9jMxH/{id}\") {\r\n        // _mint(msg.sender, Red, 1, \"\");\r\n        // _mint(msg.sender, Green, 1, \"\");\r\n        // _mint(msg.sender, Blue, 1, \"\");\r\n        // for(uint i = 0; i < 100; i++){\r\n        //     ids.push(i);\r\n        //     amounts.push(1);\r\n        // }\r\n        // _mintBatch(\r\n        //   msg.sender,\r\n        //   ids,\r\n        //   amounts,\r\n        //   \"\"\r\n        // );    \r\n    }\r\n    function mint(address account, uint256 id, uint256 amount, bytes memory data) public{\r\n      _mint(account, id, amount, data);\r\n    }\r\n\r\n    function mintBatch(address to, uint256[] memory ids, uint256[] memory amounts, bytes memory data) public{\r\n        _mintBatch(to, ids, amounts, data);\r\n    }\r\n} ",
  "sourcePath": "D:\\Code\\Blockchain_2\\Homework4\\ERC1155\\contracts\\TimERC1155.sol",
  "compiler": {
    "name": "solc",
    "version": "0.8.19+commit.7dd6d404.Emscripten.clang"
  },
  "schemaVersion": "3.4.13",
  "updatedAt": "2023-05-07T09:07:11.964Z",
  "networkType": "ethereum",
  "devdoc": {
    "events": {
      "ApprovalForAll(address,address,bool)": {
        "details": "Emitted when `account` grants or revokes permission to `operator` to transfer their tokens, according to `approved`."
      },
      "TransferBatch(address,address,address,uint256[],uint256[])": {
        "details": "Equivalent to multiple {TransferSingle} events, where `operator`, `from` and `to` are the same for all transfers."
      },
      "TransferSingle(address,address,address,uint256,uint256)": {
        "details": "Emitted when `value` tokens of token type `id` are transferred from `from` to `to` by `operator`."
      },
      "URI(string,uint256)": {
        "details": "Emitted when the URI for token type `id` changes to `value`, if it is a non-programmatic URI. If an {URI} event was emitted for `id`, the standard https://eips.ethereum.org/EIPS/eip-1155#metadata-extensions[guarantees] that `value` will equal the value returned by {IERC1155MetadataURI-uri}."
      }
    },
    "kind": "dev",
    "methods": {
      "balanceOf(address,uint256)": {
        "details": "See {IERC1155-balanceOf}. Requirements: - `account` cannot be the zero address."
      },
      "balanceOfBatch(address[],uint256[])": {
        "details": "See {IERC1155-balanceOfBatch}. Requirements: - `accounts` and `ids` must have the same length."
      },
      "isApprovedForAll(address,address)": {
        "details": "See {IERC1155-isApprovedForAll}."
      },
      "safeBatchTransferFrom(address,address,uint256[],uint256[],bytes)": {
        "details": "See {IERC1155-safeBatchTransferFrom}."
      },
      "safeTransferFrom(address,address,uint256,uint256,bytes)": {
        "details": "See {IERC1155-safeTransferFrom}."
      },
      "setApprovalForAll(address,bool)": {
        "details": "See {IERC1155-setApprovalForAll}."
      },
      "supportsInterface(bytes4)": {
        "details": "See {IERC165-supportsInterface}."
      },
      "uri(uint256)": {
        "details": "See {IERC1155MetadataURI-uri}. This implementation returns the same URI for *all* token types. It relies on the token type ID substitution mechanism https://eips.ethereum.org/EIPS/eip-1155#metadata[defined in the EIP]. Clients calling this function must replace the `\\{id\\}` substring with the actual token type ID."
      }
    },
    "version": 1
  },
  "userdoc": {
    "kind": "user",
    "methods": {},
    "version": 1
  }
}